{
  "_format": "hh-sol-artifact-1",
  "contractName": "MyToken",
  "sourceName": "contracts/MyToken.sol",
  "abi": [
    {
      "inputs": [],
      "stateMutability": "nonpayable",
      "type": "constructor"
    },
    {
      "anonymous": false,
      "inputs": [
        {
          "indexed": true,
          "internalType": "address",
          "name": "owner",
          "type": "address"
        },
        {
          "indexed": true,
          "internalType": "address",
          "name": "approved",
          "type": "address"
        },
        {
          "indexed": true,
          "internalType": "uint256",
          "name": "tokenId",
          "type": "uint256"
        }
      ],
      "name": "Approval",
      "type": "event"
    },
    {
      "anonymous": false,
      "inputs": [
        {
          "indexed": true,
          "internalType": "address",
          "name": "owner",
          "type": "address"
        },
        {
          "indexed": true,
          "internalType": "address",
          "name": "operator",
          "type": "address"
        },
        {
          "indexed": false,
          "internalType": "bool",
          "name": "approved",
          "type": "bool"
        }
      ],
      "name": "ApprovalForAll",
      "type": "event"
    },
    {
      "anonymous": false,
      "inputs": [
        {
          "indexed": true,
          "internalType": "address",
          "name": "previousOwner",
          "type": "address"
        },
        {
          "indexed": true,
          "internalType": "address",
          "name": "newOwner",
          "type": "address"
        }
      ],
      "name": "OwnershipTransferred",
      "type": "event"
    },
    {
      "anonymous": false,
      "inputs": [
        {
          "indexed": true,
          "internalType": "address",
          "name": "from",
          "type": "address"
        },
        {
          "indexed": true,
          "internalType": "address",
          "name": "to",
          "type": "address"
        },
        {
          "indexed": true,
          "internalType": "uint256",
          "name": "tokenId",
          "type": "uint256"
        }
      ],
      "name": "Transfer",
      "type": "event"
    },
    {
      "inputs": [
        {
          "internalType": "address",
          "name": "to",
          "type": "address"
        },
        {
          "internalType": "uint256",
          "name": "tokenId",
          "type": "uint256"
        }
      ],
      "name": "approve",
      "outputs": [],
      "stateMutability": "nonpayable",
      "type": "function"
    },
    {
      "inputs": [
        {
          "internalType": "address",
          "name": "owner",
          "type": "address"
        }
      ],
      "name": "balanceOf",
      "outputs": [
        {
          "internalType": "uint256",
          "name": "",
          "type": "uint256"
        }
      ],
      "stateMutability": "view",
      "type": "function"
    },
    {
      "inputs": [
        {
          "internalType": "uint256",
          "name": "tokenId",
          "type": "uint256"
        }
      ],
      "name": "getApproved",
      "outputs": [
        {
          "internalType": "address",
          "name": "",
          "type": "address"
        }
      ],
      "stateMutability": "view",
      "type": "function"
    },
    {
      "inputs": [
        {
          "internalType": "address",
          "name": "owner",
          "type": "address"
        },
        {
          "internalType": "address",
          "name": "operator",
          "type": "address"
        }
      ],
      "name": "isApprovedForAll",
      "outputs": [
        {
          "internalType": "bool",
          "name": "",
          "type": "bool"
        }
      ],
      "stateMutability": "view",
      "type": "function"
    },
    {
      "inputs": [],
      "name": "name",
      "outputs": [
        {
          "internalType": "string",
          "name": "",
          "type": "string"
        }
      ],
      "stateMutability": "view",
      "type": "function"
    },
    {
      "inputs": [],
      "name": "owner",
      "outputs": [
        {
          "internalType": "address",
          "name": "",
          "type": "address"
        }
      ],
      "stateMutability": "view",
      "type": "function"
    },
    {
      "inputs": [
        {
          "internalType": "uint256",
          "name": "tokenId",
          "type": "uint256"
        }
      ],
      "name": "ownerOf",
      "outputs": [
        {
          "internalType": "address",
          "name": "",
          "type": "address"
        }
      ],
      "stateMutability": "view",
      "type": "function"
    },
    {
      "inputs": [],
      "name": "renounceOwnership",
      "outputs": [],
      "stateMutability": "nonpayable",
      "type": "function"
    },
    {
      "inputs": [
        {
          "internalType": "address",
          "name": "to",
          "type": "address"
        }
      ],
      "name": "safeMint",
      "outputs": [],
      "stateMutability": "nonpayable",
      "type": "function"
    },
    {
      "inputs": [
        {
          "internalType": "address",
          "name": "from",
          "type": "address"
        },
        {
          "internalType": "address",
          "name": "to",
          "type": "address"
        },
        {
          "internalType": "uint256",
          "name": "tokenId",
          "type": "uint256"
        }
      ],
      "name": "safeTransferFrom",
      "outputs": [],
      "stateMutability": "nonpayable",
      "type": "function"
    },
    {
      "inputs": [
        {
          "internalType": "address",
          "name": "from",
          "type": "address"
        },
        {
          "internalType": "address",
          "name": "to",
          "type": "address"
        },
        {
          "internalType": "uint256",
          "name": "tokenId",
          "type": "uint256"
        },
        {
          "internalType": "bytes",
          "name": "_data",
          "type": "bytes"
        }
      ],
      "name": "safeTransferFrom",
      "outputs": [],
      "stateMutability": "nonpayable",
      "type": "function"
    },
    {
      "inputs": [
        {
          "internalType": "address",
          "name": "operator",
          "type": "address"
        },
        {
          "internalType": "bool",
          "name": "approved",
          "type": "bool"
        }
      ],
      "name": "setApprovalForAll",
      "outputs": [],
      "stateMutability": "nonpayable",
      "type": "function"
    },
    {
      "inputs": [
        {
          "internalType": "bytes4",
          "name": "interfaceId",
          "type": "bytes4"
        }
      ],
      "name": "supportsInterface",
      "outputs": [
        {
          "internalType": "bool",
          "name": "",
          "type": "bool"
        }
      ],
      "stateMutability": "view",
      "type": "function"
    },
    {
      "inputs": [],
      "name": "symbol",
      "outputs": [
        {
          "internalType": "string",
          "name": "",
          "type": "string"
        }
      ],
      "stateMutability": "view",
      "type": "function"
    },
    {
      "inputs": [
        {
          "internalType": "uint256",
          "name": "index",
          "type": "uint256"
        }
      ],
      "name": "tokenByIndex",
      "outputs": [
        {
          "internalType": "uint256",
          "name": "",
          "type": "uint256"
        }
      ],
      "stateMutability": "view",
      "type": "function"
    },
    {
      "inputs": [
        {
          "internalType": "address",
          "name": "owner",
          "type": "address"
        },
        {
          "internalType": "uint256",
          "name": "index",
          "type": "uint256"
        }
      ],
      "name": "tokenOfOwnerByIndex",
      "outputs": [
        {
          "internalType": "uint256",
          "name": "",
          "type": "uint256"
        }
      ],
      "stateMutability": "view",
      "type": "function"
    },
    {
      "inputs": [
        {
          "internalType": "uint256",
          "name": "tokenId",
          "type": "uint256"
        }
      ],
      "name": "tokenURI",
      "outputs": [
        {
          "internalType": "string",
          "name": "",
          "type": "string"
        }
      ],
      "stateMutability": "view",
      "type": "function"
    },
    {
      "inputs": [],
      "name": "totalSupply",
      "outputs": [
        {
          "internalType": "uint256",
          "name": "",
          "type": "uint256"
        }
      ],
      "stateMutability": "view",
      "type": "function"
    },
    {
      "inputs": [
        {
          "internalType": "address",
          "name": "from",
          "type": "address"
        },
        {
          "internalType": "address",
          "name": "to",
          "type": "address"
        },
        {
          "internalType": "uint256",
          "name": "tokenId",
          "type": "uint256"
        }
      ],
      "name": "transferFrom",
      "outputs": [],
      "stateMutability": "nonpayable",
      "type": "function"
    },
    {
      "inputs": [
        {
          "internalType": "address",
          "name": "newOwner",
          "type": "address"
        }
      ],
      "name": "transferOwnership",
      "outputs": [],
      "stateMutability": "nonpayable",
      "type": "function"
    }
  ],
  "bytecode": "0x60806040523480156200001157600080fd5b506040518060400160405280600781526020017f4d79546f6b656e000000000000000000000000000000000000000000000000008152506040518060400160405280600281526020017f4d54000000000000000000000000000000000000000000000000000000000000815250816000908051906020019062000096929190620001a6565b508060019080519060200190620000af929190620001a6565b505050620000d2620000c6620000d860201b60201c565b620000e060201b60201c565b620002bb565b600033905090565b6000600a60009054906101000a900473ffffffffffffffffffffffffffffffffffffffff16905081600a60006101000a81548173ffffffffffffffffffffffffffffffffffffffff021916908373ffffffffffffffffffffffffffffffffffffffff1602179055508173ffffffffffffffffffffffffffffffffffffffff168173ffffffffffffffffffffffffffffffffffffffff167f8be0079c531659141344cd1fd0a4f28419497f9722a3daafe3b4186f6b6457e060405160405180910390a35050565b828054620001b49062000256565b90600052602060002090601f016020900481019282620001d8576000855562000224565b82601f10620001f357805160ff191683800117855562000224565b8280016001018555821562000224579182015b828111156200022357825182559160200191906001019062000206565b5b50905062000233919062000237565b5090565b5b808211156200025257600081600090555060010162000238565b5090565b600060028204905060018216806200026f57607f821691505b602082108114156200028657620002856200028c565b5b50919050565b7f4e487b7100000000000000000000000000000000000000000000000000000000600052602260045260246000fd5b6133c280620002cb6000396000f3fe608060405234801561001057600080fd5b506004361061012c5760003560e01c80636352211e116100ad578063a22cb46511610071578063a22cb46514610343578063b88d4fde1461035f578063c87b56dd1461037b578063e985e9c5146103ab578063f2fde38b146103db5761012c565b80636352211e1461029d57806370a08231146102cd578063715018a6146102fd5780638da5cb5b1461030757806395d89b41146103255761012c565b806323b872dd116100f457806323b872dd146101e95780632f745c591461020557806340d097c31461023557806342842e0e146102515780634f6ccce71461026d5761012c565b806301ffc9a71461013157806306fdde0314610161578063081812fc1461017f578063095ea7b3146101af57806318160ddd146101cb575b600080fd5b61014b600480360381019061014691906123a2565b6103f7565b60405161015891906127ee565b60405180910390f35b610169610409565b6040516101769190612809565b60405180910390f35b610199600480360381019061019491906123f4565b61049b565b6040516101a69190612787565b60405180910390f35b6101c960048036038101906101c49190612366565b610520565b005b6101d3610638565b6040516101e09190612a6b565b60405180910390f35b61020360048036038101906101fe9190612260565b610645565b005b61021f600480360381019061021a9190612366565b6106a5565b60405161022c9190612a6b565b60405180910390f35b61024f600480360381019061024a91906121fb565b61074a565b005b61026b60048036038101906102669190612260565b6107e6565b005b610287600480360381019061028291906123f4565b610806565b6040516102949190612a6b565b60405180910390f35b6102b760048036038101906102b291906123f4565b61089d565b6040516102c49190612787565b60405180910390f35b6102e760048036038101906102e291906121fb565b61094f565b6040516102f49190612a6b565b60405180910390f35b610305610a07565b005b61030f610a8f565b60405161031c9190612787565b60405180910390f35b61032d610ab9565b60405161033a9190612809565b60405180910390f35b61035d6004803603810190610358919061232a565b610b4b565b005b610379600480360381019061037491906122af565b610ccc565b005b610395600480360381019061039091906123f4565b610d2e565b6040516103a29190612809565b60405180910390f35b6103c560048036038101906103c09190612224565b610dd5565b6040516103d291906127ee565b60405180910390f35b6103f560048036038101906103f091906121fb565b610e69565b005b600061040282610f61565b9050919050565b60606000805461041890612c90565b80601f016020809104026020016040519081016040528092919081815260200182805461044490612c90565b80156104915780601f1061046657610100808354040283529160200191610491565b820191906000526020600020905b81548152906001019060200180831161047457829003601f168201915b5050505050905090565b60006104a682610fdb565b6104e5576040517f08c379a00000000000000000000000000000000000000000000000000000000081526004016104dc9061298b565b60405180910390fd5b6004600083815260200190815260200160002060009054906101000a900473ffffffffffffffffffffffffffffffffffffffff169050919050565b600061052b8261089d565b90508073ffffffffffffffffffffffffffffffffffffffff168373ffffffffffffffffffffffffffffffffffffffff16141561059c576040517f08c379a000000000000000000000000000000000000000000000000000000000815260040161059390612a0b565b60405180910390fd5b8073ffffffffffffffffffffffffffffffffffffffff166105bb611047565b73ffffffffffffffffffffffffffffffffffffffff1614806105ea57506105e9816105e4611047565b610dd5565b5b610629576040517f08c379a00000000000000000000000000000000000000000000000000000000081526004016106209061290b565b60405180910390fd5b610633838361104f565b505050565b6000600880549050905090565b610656610650611047565b82611108565b610695576040517f08c379a000000000000000000000000000000000000000000000000000000000815260040161068c90612a2b565b60405180910390fd5b6106a08383836111e6565b505050565b60006106b08361094f565b82106106f1576040517f08c379a00000000000000000000000000000000000000000000000000000000081526004016106e89061282b565b60405180910390fd5b600660008473ffffffffffffffffffffffffffffffffffffffff1673ffffffffffffffffffffffffffffffffffffffff168152602001908152602001600020600083815260200190815260200160002054905092915050565b610752611047565b73ffffffffffffffffffffffffffffffffffffffff16610770610a8f565b73ffffffffffffffffffffffffffffffffffffffff16146107c6576040517f08c379a00000000000000000000000000000000000000000000000000000000081526004016107bd906129ab565b60405180910390fd5b6107d9816107d4600b611442565b611450565b6107e3600b61146e565b50565b61080183838360405180602001604052806000815250610ccc565b505050565b6000610810610638565b8210610851576040517f08c379a000000000000000000000000000000000000000000000000000000000815260040161084890612a4b565b60405180910390fd5b6008828154811061088b577f4e487b7100000000000000000000000000000000000000000000000000000000600052603260045260246000fd5b90600052602060002001549050919050565b6000806002600084815260200190815260200160002060009054906101000a900473ffffffffffffffffffffffffffffffffffffffff169050600073ffffffffffffffffffffffffffffffffffffffff168173ffffffffffffffffffffffffffffffffffffffff161415610946576040517f08c379a000000000000000000000000000000000000000000000000000000000815260040161093d9061294b565b60405180910390fd5b80915050919050565b60008073ffffffffffffffffffffffffffffffffffffffff168273ffffffffffffffffffffffffffffffffffffffff1614156109c0576040517f08c379a00000000000000000000000000000000000000000000000000000000081526004016109b79061292b565b60405180910390fd5b600360008373ffffffffffffffffffffffffffffffffffffffff1673ffffffffffffffffffffffffffffffffffffffff168152602001908152602001600020549050919050565b610a0f611047565b73ffffffffffffffffffffffffffffffffffffffff16610a2d610a8f565b73ffffffffffffffffffffffffffffffffffffffff1614610a83576040517f08c379a0000000000000000000000000000000000000000000000000000000008152600401610a7a906129ab565b60405180910390fd5b610a8d6000611484565b565b6000600a60009054906101000a900473ffffffffffffffffffffffffffffffffffffffff16905090565b606060018054610ac890612c90565b80601f0160208091040260200160405190810160405280929190818152602001828054610af490612c90565b8015610b415780601f10610b1657610100808354040283529160200191610b41565b820191906000526020600020905b815481529060010190602001808311610b2457829003601f168201915b5050505050905090565b610b53611047565b73ffffffffffffffffffffffffffffffffffffffff168273ffffffffffffffffffffffffffffffffffffffff161415610bc1576040517f08c379a0000000000000000000000000000000000000000000000000000000008152600401610bb8906128cb565b60405180910390fd5b8060056000610bce611047565b73ffffffffffffffffffffffffffffffffffffffff1673ffffffffffffffffffffffffffffffffffffffff16815260200190815260200160002060008473ffffffffffffffffffffffffffffffffffffffff1673ffffffffffffffffffffffffffffffffffffffff16815260200190815260200160002060006101000a81548160ff0219169083151502179055508173ffffffffffffffffffffffffffffffffffffffff16610c7b611047565b73ffffffffffffffffffffffffffffffffffffffff167f17307eab39ab6107e8899845ad3d59bd9653f200f220920489ca2b5937696c3183604051610cc091906127ee565b60405180910390a35050565b610cdd610cd7611047565b83611108565b610d1c576040517f08c379a0000000000000000000000000000000000000000000000000000000008152600401610d1390612a2b565b60405180910390fd5b610d288484848461154a565b50505050565b6060610d3982610fdb565b610d78576040517f08c379a0000000000000000000000000000000000000000000000000000000008152600401610d6f906129eb565b60405180910390fd5b6000610d826115a6565b90506000815111610da25760405180602001604052806000815250610dcd565b80610dac846115bd565b604051602001610dbd929190612763565b6040516020818303038152906040525b915050919050565b6000600560008473ffffffffffffffffffffffffffffffffffffffff1673ffffffffffffffffffffffffffffffffffffffff16815260200190815260200160002060008373ffffffffffffffffffffffffffffffffffffffff1673ffffffffffffffffffffffffffffffffffffffff16815260200190815260200160002060009054906101000a900460ff16905092915050565b610e71611047565b73ffffffffffffffffffffffffffffffffffffffff16610e8f610a8f565b73ffffffffffffffffffffffffffffffffffffffff1614610ee5576040517f08c379a0000000000000000000000000000000000000000000000000000000008152600401610edc906129ab565b60405180910390fd5b600073ffffffffffffffffffffffffffffffffffffffff168173ffffffffffffffffffffffffffffffffffffffff161415610f55576040517f08c379a0000000000000000000000000000000000000000000000000000000008152600401610f4c9061286b565b60405180910390fd5b610f5e81611484565b50565b60007f780e9d63000000000000000000000000000000000000000000000000000000007bffffffffffffffffffffffffffffffffffffffffffffffffffffffff1916827bffffffffffffffffffffffffffffffffffffffffffffffffffffffff19161480610fd45750610fd38261176a565b5b9050919050565b60008073ffffffffffffffffffffffffffffffffffffffff166002600084815260200190815260200160002060009054906101000a900473ffffffffffffffffffffffffffffffffffffffff1673ffffffffffffffffffffffffffffffffffffffff1614159050919050565b600033905090565b816004600083815260200190815260200160002060006101000a81548173ffffffffffffffffffffffffffffffffffffffff021916908373ffffffffffffffffffffffffffffffffffffffff160217905550808273ffffffffffffffffffffffffffffffffffffffff166110c28361089d565b73ffffffffffffffffffffffffffffffffffffffff167f8c5be1e5ebec7d5bd14f71427d1e84f3dd0314c0f7b2291e5b200ac8c7c3b92560405160405180910390a45050565b600061111382610fdb565b611152576040517f08c379a0000000000000000000000000000000000000000000000000000000008152600401611149906128eb565b60405180910390fd5b600061115d8361089d565b90508073ffffffffffffffffffffffffffffffffffffffff168473ffffffffffffffffffffffffffffffffffffffff1614806111cc57508373ffffffffffffffffffffffffffffffffffffffff166111b48461049b565b73ffffffffffffffffffffffffffffffffffffffff16145b806111dd57506111dc8185610dd5565b5b91505092915050565b8273ffffffffffffffffffffffffffffffffffffffff166112068261089d565b73ffffffffffffffffffffffffffffffffffffffff161461125c576040517f08c379a0000000000000000000000000000000000000000000000000000000008152600401611253906129cb565b60405180910390fd5b600073ffffffffffffffffffffffffffffffffffffffff168273ffffffffffffffffffffffffffffffffffffffff1614156112cc576040517f08c379a00000000000000000000000000000000000000000000000000000000081526004016112c3906128ab565b60405180910390fd5b6112d783838361184c565b6112e260008261104f565b6001600360008573ffffffffffffffffffffffffffffffffffffffff1673ffffffffffffffffffffffffffffffffffffffff16815260200190815260200160002060008282546113329190612ba6565b925050819055506001600360008473ffffffffffffffffffffffffffffffffffffffff1673ffffffffffffffffffffffffffffffffffffffff16815260200190815260200160002060008282546113899190612b1f565b92505081905550816002600083815260200190815260200160002060006101000a81548173ffffffffffffffffffffffffffffffffffffffff021916908373ffffffffffffffffffffffffffffffffffffffff160217905550808273ffffffffffffffffffffffffffffffffffffffff168473ffffffffffffffffffffffffffffffffffffffff167fddf252ad1be2c89b69c2b068fc378daa952ba7f163c4a11628f55a4df523b3ef60405160405180910390a4505050565b600081600001549050919050565b61146a82826040518060200160405280600081525061185c565b5050565b6001816000016000828254019250508190555050565b6000600a60009054906101000a900473ffffffffffffffffffffffffffffffffffffffff16905081600a60006101000a81548173ffffffffffffffffffffffffffffffffffffffff021916908373ffffffffffffffffffffffffffffffffffffffff1602179055508173ffffffffffffffffffffffffffffffffffffffff168173ffffffffffffffffffffffffffffffffffffffff167f8be0079c531659141344cd1fd0a4f28419497f9722a3daafe3b4186f6b6457e060405160405180910390a35050565b6115558484846111e6565b611561848484846118b7565b6115a0576040517f08c379a00000000000000000000000000000000000000000000000000000000081526004016115979061284b565b60405180910390fd5b50505050565b606060405180602001604052806000815250905090565b60606000821415611605576040518060400160405280600181526020017f30000000000000000000000000000000000000000000000000000000000000008152509050611765565b600082905060005b6000821461163757808061162090612cf3565b915050600a826116309190612b75565b915061160d565b60008167ffffffffffffffff811115611679577f4e487b7100000000000000000000000000000000000000000000000000000000600052604160045260246000fd5b6040519080825280601f01601f1916602001820160405280156116ab5781602001600182028036833780820191505090505b5090505b6000851461175e576001826116c49190612ba6565b9150600a856116d39190612d3c565b60306116df9190612b1f565b60f81b81838151811061171b577f4e487b7100000000000000000000000000000000000000000000000000000000600052603260045260246000fd5b60200101907effffffffffffffffffffffffffffffffffffffffffffffffffffffffffffff1916908160001a905350600a856117579190612b75565b94506116af565b8093505050505b919050565b60007f80ac58cd000000000000000000000000000000000000000000000000000000007bffffffffffffffffffffffffffffffffffffffffffffffffffffffff1916827bffffffffffffffffffffffffffffffffffffffffffffffffffffffff1916148061183557507f5b5e139f000000000000000000000000000000000000000000000000000000007bffffffffffffffffffffffffffffffffffffffffffffffffffffffff1916827bffffffffffffffffffffffffffffffffffffffffffffffffffffffff1916145b80611845575061184482611a4e565b5b9050919050565b611857838383611ab8565b505050565b6118668383611bcc565b61187360008484846118b7565b6118b2576040517f08c379a00000000000000000000000000000000000000000000000000000000081526004016118a99061284b565b60405180910390fd5b505050565b60006118d88473ffffffffffffffffffffffffffffffffffffffff16611d9a565b15611a41578373ffffffffffffffffffffffffffffffffffffffff1663150b7a02611901611047565b8786866040518563ffffffff1660e01b815260040161192394939291906127a2565b602060405180830381600087803b15801561193d57600080fd5b505af192505050801561196e57506040513d601f19601f8201168201806040525081019061196b91906123cb565b60015b6119f1573d806000811461199e576040519150601f19603f3d011682016040523d82523d6000602084013e6119a3565b606091505b506000815114156119e9576040517f08c379a00000000000000000000000000000000000000000000000000000000081526004016119e09061284b565b60405180910390fd5b805181602001fd5b63150b7a0260e01b7bffffffffffffffffffffffffffffffffffffffffffffffffffffffff1916817bffffffffffffffffffffffffffffffffffffffffffffffffffffffff191614915050611a46565b600190505b949350505050565b60007f01ffc9a7000000000000000000000000000000000000000000000000000000007bffffffffffffffffffffffffffffffffffffffffffffffffffffffff1916827bffffffffffffffffffffffffffffffffffffffffffffffffffffffff1916149050919050565b611ac3838383611dad565b600073ffffffffffffffffffffffffffffffffffffffff168373ffffffffffffffffffffffffffffffffffffffff161415611b0657611b0181611db2565b611b45565b8173ffffffffffffffffffffffffffffffffffffffff168373ffffffffffffffffffffffffffffffffffffffff1614611b4457611b438382611dfb565b5b5b600073ffffffffffffffffffffffffffffffffffffffff168273ffffffffffffffffffffffffffffffffffffffff161415611b8857611b8381611f68565b611bc7565b8273ffffffffffffffffffffffffffffffffffffffff168273ffffffffffffffffffffffffffffffffffffffff1614611bc657611bc582826120ab565b5b5b505050565b600073ffffffffffffffffffffffffffffffffffffffff168273ffffffffffffffffffffffffffffffffffffffff161415611c3c576040517f08c379a0000000000000000000000000000000000000000000000000000000008152600401611c339061296b565b60405180910390fd5b611c4581610fdb565b15611c85576040517f08c379a0000000000000000000000000000000000000000000000000000000008152600401611c7c9061288b565b60405180910390fd5b611c916000838361184c565b6001600360008473ffffffffffffffffffffffffffffffffffffffff1673ffffffffffffffffffffffffffffffffffffffff1681526020019081526020016000206000828254611ce19190612b1f565b92505081905550816002600083815260200190815260200160002060006101000a81548173ffffffffffffffffffffffffffffffffffffffff021916908373ffffffffffffffffffffffffffffffffffffffff160217905550808273ffffffffffffffffffffffffffffffffffffffff16600073ffffffffffffffffffffffffffffffffffffffff167fddf252ad1be2c89b69c2b068fc378daa952ba7f163c4a11628f55a4df523b3ef60405160405180910390a45050565b600080823b905060008111915050919050565b505050565b6008805490506009600083815260200190815260200160002081905550600881908060018154018082558091505060019003906000526020600020016000909190919091505550565b60006001611e088461094f565b611e129190612ba6565b9050600060076000848152602001908152602001600020549050818114611ef7576000600660008673ffffffffffffffffffffffffffffffffffffffff1673ffffffffffffffffffffffffffffffffffffffff168152602001908152602001600020600084815260200190815260200160002054905080600660008773ffffffffffffffffffffffffffffffffffffffff1673ffffffffffffffffffffffffffffffffffffffff168152602001908152602001600020600084815260200190815260200160002081905550816007600083815260200190815260200160002081905550505b6007600084815260200190815260200160002060009055600660008573ffffffffffffffffffffffffffffffffffffffff1673ffffffffffffffffffffffffffffffffffffffff16815260200190815260200160002060008381526020019081526020016000206000905550505050565b60006001600880549050611f7c9190612ba6565b9050600060096000848152602001908152602001600020549050600060088381548110611fd2577f4e487b7100000000000000000000000000000000000000000000000000000000600052603260045260246000fd5b90600052602060002001549050806008838154811061201a577f4e487b7100000000000000000000000000000000000000000000000000000000600052603260045260246000fd5b90600052602060002001819055508160096000838152602001908152602001600020819055506009600085815260200190815260200160002060009055600880548061208f577f4e487b7100000000000000000000000000000000000000000000000000000000600052603160045260246000fd5b6001900381819060005260206000200160009055905550505050565b60006120b68361094f565b905081600660008573ffffffffffffffffffffffffffffffffffffffff1673ffffffffffffffffffffffffffffffffffffffff168152602001908152602001600020600083815260200190815260200160002081905550806007600084815260200190815260200160002081905550505050565b600061213d61213884612aab565b612a86565b90508281526020810184848401111561215557600080fd5b612160848285612c4e565b509392505050565b60008135905061217781613330565b92915050565b60008135905061218c81613347565b92915050565b6000813590506121a18161335e565b92915050565b6000815190506121b68161335e565b92915050565b600082601f8301126121cd57600080fd5b81356121dd84826020860161212a565b91505092915050565b6000813590506121f581613375565b92915050565b60006020828403121561220d57600080fd5b600061221b84828501612168565b91505092915050565b6000806040838503121561223757600080fd5b600061224585828601612168565b925050602061225685828601612168565b9150509250929050565b60008060006060848603121561227557600080fd5b600061228386828701612168565b935050602061229486828701612168565b92505060406122a5868287016121e6565b9150509250925092565b600080600080608085870312156122c557600080fd5b60006122d387828801612168565b94505060206122e487828801612168565b93505060406122f5878288016121e6565b925050606085013567ffffffffffffffff81111561231257600080fd5b61231e878288016121bc565b91505092959194509250565b6000806040838503121561233d57600080fd5b600061234b85828601612168565b925050602061235c8582860161217d565b9150509250929050565b6000806040838503121561237957600080fd5b600061238785828601612168565b9250506020612398858286016121e6565b9150509250929050565b6000602082840312156123b457600080fd5b60006123c284828501612192565b91505092915050565b6000602082840312156123dd57600080fd5b60006123eb848285016121a7565b91505092915050565b60006020828403121561240657600080fd5b6000612414848285016121e6565b91505092915050565b61242681612bda565b82525050565b61243581612bec565b82525050565b600061244682612adc565b6124508185612af2565b9350612460818560208601612c5d565b61246981612e29565b840191505092915050565b600061247f82612ae7565b6124898185612b03565b9350612499818560208601612c5d565b6124a281612e29565b840191505092915050565b60006124b882612ae7565b6124c28185612b14565b93506124d2818560208601612c5d565b80840191505092915050565b60006124eb602b83612b03565b91506124f682612e3a565b604082019050919050565b600061250e603283612b03565b915061251982612e89565b604082019050919050565b6000612531602683612b03565b915061253c82612ed8565b604082019050919050565b6000612554601c83612b03565b915061255f82612f27565b602082019050919050565b6000612577602483612b03565b915061258282612f50565b604082019050919050565b600061259a601983612b03565b91506125a582612f9f565b602082019050919050565b60006125bd602c83612b03565b91506125c882612fc8565b604082019050919050565b60006125e0603883612b03565b91506125eb82613017565b604082019050919050565b6000612603602a83612b03565b915061260e82613066565b604082019050919050565b6000612626602983612b03565b9150612631826130b5565b604082019050919050565b6000612649602083612b03565b915061265482613104565b602082019050919050565b600061266c602c83612b03565b91506126778261312d565b604082019050919050565b600061268f602083612b03565b915061269a8261317c565b602082019050919050565b60006126b2602983612b03565b91506126bd826131a5565b604082019050919050565b60006126d5602f83612b03565b91506126e0826131f4565b604082019050919050565b60006126f8602183612b03565b915061270382613243565b604082019050919050565b600061271b603183612b03565b915061272682613292565b604082019050919050565b600061273e602c83612b03565b9150612749826132e1565b604082019050919050565b61275d81612c44565b82525050565b600061276f82856124ad565b915061277b82846124ad565b91508190509392505050565b600060208201905061279c600083018461241d565b92915050565b60006080820190506127b7600083018761241d565b6127c4602083018661241d565b6127d16040830185612754565b81810360608301526127e3818461243b565b905095945050505050565b6000602082019050612803600083018461242c565b92915050565b600060208201905081810360008301526128238184612474565b905092915050565b60006020820190508181036000830152612844816124de565b9050919050565b6000602082019050818103600083015261286481612501565b9050919050565b6000602082019050818103600083015261288481612524565b9050919050565b600060208201905081810360008301526128a481612547565b9050919050565b600060208201905081810360008301526128c48161256a565b9050919050565b600060208201905081810360008301526128e48161258d565b9050919050565b60006020820190508181036000830152612904816125b0565b9050919050565b60006020820190508181036000830152612924816125d3565b9050919050565b60006020820190508181036000830152612944816125f6565b9050919050565b6000602082019050818103600083015261296481612619565b9050919050565b600060208201905081810360008301526129848161263c565b9050919050565b600060208201905081810360008301526129a48161265f565b9050919050565b600060208201905081810360008301526129c481612682565b9050919050565b600060208201905081810360008301526129e4816126a5565b9050919050565b60006020820190508181036000830152612a04816126c8565b9050919050565b60006020820190508181036000830152612a24816126eb565b9050919050565b60006020820190508181036000830152612a448161270e565b9050919050565b60006020820190508181036000830152612a6481612731565b9050919050565b6000602082019050612a806000830184612754565b92915050565b6000612a90612aa1565b9050612a9c8282612cc2565b919050565b6000604051905090565b600067ffffffffffffffff821115612ac657612ac5612dfa565b5b612acf82612e29565b9050602081019050919050565b600081519050919050565b600081519050919050565b600082825260208201905092915050565b600082825260208201905092915050565b600081905092915050565b6000612b2a82612c44565b9150612b3583612c44565b9250827fffffffffffffffffffffffffffffffffffffffffffffffffffffffffffffffff03821115612b6a57612b69612d6d565b5b828201905092915050565b6000612b8082612c44565b9150612b8b83612c44565b925082612b9b57612b9a612d9c565b5b828204905092915050565b6000612bb182612c44565b9150612bbc83612c44565b925082821015612bcf57612bce612d6d565b5b828203905092915050565b6000612be582612c24565b9050919050565b60008115159050919050565b60007fffffffff0000000000000000000000000000000000000000000000000000000082169050919050565b600073ffffffffffffffffffffffffffffffffffffffff82169050919050565b6000819050919050565b82818337600083830152505050565b60005b83811015612c7b578082015181840152602081019050612c60565b83811115612c8a576000848401525b50505050565b60006002820490506001821680612ca857607f821691505b60208210811415612cbc57612cbb612dcb565b5b50919050565b612ccb82612e29565b810181811067ffffffffffffffff82111715612cea57612ce9612dfa565b5b80604052505050565b6000612cfe82612c44565b91507fffffffffffffffffffffffffffffffffffffffffffffffffffffffffffffffff821415612d3157612d30612d6d565b5b600182019050919050565b6000612d4782612c44565b9150612d5283612c44565b925082612d6257612d61612d9c565b5b828206905092915050565b7f4e487b7100000000000000000000000000000000000000000000000000000000600052601160045260246000fd5b7f4e487b7100000000000000000000000000000000000000000000000000000000600052601260045260246000fd5b7f4e487b7100000000000000000000000000000000000000000000000000000000600052602260045260246000fd5b7f4e487b7100000000000000000000000000000000000000000000000000000000600052604160045260246000fd5b6000601f19601f8301169050919050565b7f455243373231456e756d657261626c653a206f776e657220696e646578206f7560008201527f74206f6620626f756e6473000000000000000000000000000000000000000000602082015250565b7f4552433732313a207472616e7366657220746f206e6f6e20455243373231526560008201527f63656976657220696d706c656d656e7465720000000000000000000000000000602082015250565b7f4f776e61626c653a206e6577206f776e657220697320746865207a65726f206160008201527f6464726573730000000000000000000000000000000000000000000000000000602082015250565b7f4552433732313a20746f6b656e20616c7265616479206d696e74656400000000600082015250565b7f4552433732313a207472616e7366657220746f20746865207a65726f2061646460008201527f7265737300000000000000000000000000000000000000000000000000000000602082015250565b7f4552433732313a20617070726f766520746f2063616c6c657200000000000000600082015250565b7f4552433732313a206f70657261746f7220717565727920666f72206e6f6e657860008201527f697374656e7420746f6b656e0000000000000000000000000000000000000000602082015250565b7f4552433732313a20617070726f76652063616c6c6572206973206e6f74206f7760008201527f6e6572206e6f7220617070726f76656420666f7220616c6c0000000000000000602082015250565b7f4552433732313a2062616c616e636520717565727920666f7220746865207a6560008201527f726f206164647265737300000000000000000000000000000000000000000000602082015250565b7f4552433732313a206f776e657220717565727920666f72206e6f6e657869737460008201527f656e7420746f6b656e0000000000000000000000000000000000000000000000602082015250565b7f4552433732313a206d696e7420746f20746865207a65726f2061646472657373600082015250565b7f4552433732313a20617070726f76656420717565727920666f72206e6f6e657860008201527f697374656e7420746f6b656e0000000000000000000000000000000000000000602082015250565b7f4f776e61626c653a2063616c6c6572206973206e6f7420746865206f776e6572600082015250565b7f4552433732313a207472616e73666572206f6620746f6b656e2074686174206960008201527f73206e6f74206f776e0000000000000000000000000000000000000000000000602082015250565b7f4552433732314d657461646174613a2055524920717565727920666f72206e6f60008201527f6e6578697374656e7420746f6b656e0000000000000000000000000000000000602082015250565b7f4552433732313a20617070726f76616c20746f2063757272656e74206f776e6560008201527f7200000000000000000000000000000000000000000000000000000000000000602082015250565b7f4552433732313a207472616e736665722063616c6c6572206973206e6f74206f60008201527f776e6572206e6f7220617070726f766564000000000000000000000000000000602082015250565b7f455243373231456e756d657261626c653a20676c6f62616c20696e646578206f60008201527f7574206f6620626f756e64730000000000000000000000000000000000000000602082015250565b61333981612bda565b811461334457600080fd5b50565b61335081612bec565b811461335b57600080fd5b50565b61336781612bf8565b811461337257600080fd5b50565b61337e81612c44565b811461338957600080fd5b5056fea2646970667358221220a50fbd725f390c908f2b6241e11e52fa6cd96ad7bb49aa439a945815185c937964736f6c63430008020033",
  "linkReferences": {},
  "deployedLinkReferences": {}
}